{
  "_format": "hh-sol-artifact-1",
  "contractName": "MealFunding",
  "sourceName": "contracts/MealFunding.sol",
  "abi": [
    {
      "inputs": [],
      "stateMutability": "nonpayable",
      "type": "constructor"
    },
    {
      "anonymous": false,
      "inputs": [],
      "name": "ContractPaused",
      "type": "event"
    },
    {
      "anonymous": false,
      "inputs": [],
      "name": "ContractUnpaused",
      "type": "event"
    },
    {
      "anonymous": false,
      "inputs": [
        {
          "indexed": false,
          "internalType": "uint256",
          "name": "newLimit",
          "type": "uint256"
        }
      ],
      "name": "DailyLimitUpdated",
      "type": "event"
    },
    {
      "anonymous": false,
      "inputs": [
        {
          "indexed": true,
          "internalType": "address",
          "name": "funder",
          "type": "address"
        },
        {
          "indexed": false,
          "internalType": "uint256",
          "name": "amount",
          "type": "uint256"
        },
        {
          "indexed": false,
          "internalType": "uint256",
          "name": "newBalance",
          "type": "uint256"
        }
      ],
      "name": "FundsDeposited",
      "type": "event"
    },
    {
      "anonymous": false,
      "inputs": [
        {
          "indexed": true,
          "internalType": "address",
          "name": "recipient",
          "type": "address"
        },
        {
          "indexed": false,
          "internalType": "uint256",
          "name": "amount",
          "type": "uint256"
        },
        {
          "indexed": false,
          "internalType": "uint256",
          "name": "remainingBalance",
          "type": "uint256"
        }
      ],
      "name": "MealRequested",
      "type": "event"
    },
    {
      "anonymous": false,
      "inputs": [
        {
          "indexed": true,
          "internalType": "address",
          "name": "recipient",
          "type": "address"
        }
      ],
      "name": "RecipientApproved",
      "type": "event"
    },
    {
      "anonymous": false,
      "inputs": [
        {
          "indexed": true,
          "internalType": "address",
          "name": "recipient",
          "type": "address"
        }
      ],
      "name": "RecipientRevoked",
      "type": "event"
    },
    {
      "inputs": [
        {
          "internalType": "address",
          "name": "recipient",
          "type": "address"
        }
      ],
      "name": "approveRecipient",
      "outputs": [],
      "stateMutability": "nonpayable",
      "type": "function"
    },
    {
      "inputs": [
        {
          "internalType": "address",
          "name": "",
          "type": "address"
        }
      ],
      "name": "approvedRecipients",
      "outputs": [
        {
          "internalType": "bool",
          "name": "",
          "type": "bool"
        }
      ],
      "stateMutability": "view",
      "type": "function"
    },
    {
      "inputs": [],
      "name": "dailyLimit",
      "outputs": [
        {
          "internalType": "uint256",
          "name": "",
          "type": "uint256"
        }
      ],
      "stateMutability": "view",
      "type": "function"
    },
    {
      "inputs": [
        {
          "internalType": "address",
          "name": "",
          "type": "address"
        }
      ],
      "name": "dailySpent",
      "outputs": [
        {
          "internalType": "uint256",
          "name": "",
          "type": "uint256"
        }
      ],
      "stateMutability": "view",
      "type": "function"
    },
    {
      "inputs": [],
      "name": "emergencyWithdraw",
      "outputs": [],
      "stateMutability": "nonpayable",
      "type": "function"
    },
    {
      "inputs": [],
      "name": "fund",
      "outputs": [],
      "stateMutability": "payable",
      "type": "function"
    },
    {
      "inputs": [
        {
          "internalType": "address",
          "name": "",
          "type": "address"
        }
      ],
      "name": "funderBalances",
      "outputs": [
        {
          "internalType": "uint256",
          "name": "",
          "type": "uint256"
        }
      ],
      "stateMutability": "view",
      "type": "function"
    },
    {
      "inputs": [],
      "name": "getContractBalance",
      "outputs": [
        {
          "internalType": "uint256",
          "name": "",
          "type": "uint256"
        }
      ],
      "stateMutability": "view",
      "type": "function"
    },
    {
      "inputs": [
        {
          "internalType": "address",
          "name": "recipient",
          "type": "address"
        }
      ],
      "name": "getRemainingDailyAllowance",
      "outputs": [
        {
          "internalType": "uint256",
          "name": "",
          "type": "uint256"
        }
      ],
      "stateMutability": "view",
      "type": "function"
    },
    {
      "inputs": [
        {
          "internalType": "address",
          "name": "",
          "type": "address"
        }
      ],
      "name": "lastWithdrawalDay",
      "outputs": [
        {
          "internalType": "uint256",
          "name": "",
          "type": "uint256"
        }
      ],
      "stateMutability": "view",
      "type": "function"
    },
    {
      "inputs": [],
      "name": "owner",
      "outputs": [
        {
          "internalType": "address",
          "name": "",
          "type": "address"
        }
      ],
      "stateMutability": "view",
      "type": "function"
    },
    {
      "inputs": [],
      "name": "pause",
      "outputs": [],
      "stateMutability": "nonpayable",
      "type": "function"
    },
    {
      "inputs": [],
      "name": "paused",
      "outputs": [
        {
          "internalType": "bool",
          "name": "",
          "type": "bool"
        }
      ],
      "stateMutability": "view",
      "type": "function"
    },
    {
      "inputs": [
        {
          "internalType": "uint256",
          "name": "amount",
          "type": "uint256"
        }
      ],
      "name": "requestMeal",
      "outputs": [],
      "stateMutability": "nonpayable",
      "type": "function"
    },
    {
      "inputs": [
        {
          "internalType": "address",
          "name": "recipient",
          "type": "address"
        }
      ],
      "name": "revokeRecipient",
      "outputs": [],
      "stateMutability": "nonpayable",
      "type": "function"
    },
    {
      "inputs": [],
      "name": "totalFunds",
      "outputs": [
        {
          "internalType": "uint256",
          "name": "",
          "type": "uint256"
        }
      ],
      "stateMutability": "view",
      "type": "function"
    },
    {
      "inputs": [],
      "name": "unpause",
      "outputs": [],
      "stateMutability": "nonpayable",
      "type": "function"
    },
    {
      "inputs": [
        {
          "internalType": "uint256",
          "name": "newLimit",
          "type": "uint256"
        }
      ],
      "name": "updateDailyLimit",
      "outputs": [],
      "stateMutability": "nonpayable",
      "type": "function"
    }
  ],
  "bytecode": "0x6080604052678ac7230489e8000060015534801561001c57600080fd5b506000805460ff60a01b1933166001600160a81b0319909116179055610e59806100476000396000f3fe6080604052600436106101095760003560e01c80638da5cb5b11610095578063db2e21bc11610064578063db2e21bc146102aa578063dead610a146102bf578063f8175d78146102ef578063fee69cb91461030f578063ffc8ada61461033c57600080fd5b80638da5cb5b14610234578063968ed6001461026c578063a193c04c14610282578063b60d4288146102a257600080fd5b806367eeba0c116100dc57806367eeba0c146101a95780636f3744fb146101bf5780636f9fb98a146101ec57806376d45a09146101ff5780638456cb591461021f57600080fd5b80631b583f901461010e5780633f4ba83a14610141578063504b449c146101585780635c975abb14610178575b600080fd5b34801561011a57600080fd5b5061012e610129366004610d3c565b610369565b6040519081526020015b60405180910390f35b34801561014d57600080fd5b506101566103fd565b005b34801561016457600080fd5b50610156610173366004610d3c565b6104b5565b34801561018457600080fd5b5060005461019990600160a01b900460ff1681565b6040519015158152602001610138565b3480156101b557600080fd5b5061012e60015481565b3480156101cb57600080fd5b5061012e6101da366004610d3c565b60066020526000908152604090205481565b3480156101f857600080fd5b504761012e565b34801561020b57600080fd5b5061015661021a366004610d3c565b610589565b34801561022b57600080fd5b506101566106be565b34801561024057600080fd5b50600054610254906001600160a01b031681565b6040516001600160a01b039091168152602001610138565b34801561027857600080fd5b5061012e60025481565b34801561028e57600080fd5b5061015661029d366004610d65565b61077e565b610156610a7d565b3480156102b657600080fd5b50610156610b9c565b3480156102cb57600080fd5b506101996102da366004610d3c565b60046020526000908152604090205460ff1681565b3480156102fb57600080fd5b5061015661030a366004610d65565b610c7c565b34801561031b57600080fd5b5061012e61032a366004610d3c565b60036020526000908152604090205481565b34801561034857600080fd5b5061012e610357366004610d3c565b60056020526000908152604090205481565b6000806103796201518042610d94565b6001600160a01b0384166000908152600660205260409020549091508111156103a6575050600154919050565b6001546001600160a01b038416600090815260056020526040902054106103d05750600092915050565b6001600160a01b0383166000908152600560205260409020546001546103f69190610db6565b9392505050565b6000546001600160a01b031633146104305760405162461bcd60e51b815260040161042790610dcf565b60405180910390fd5b600054600160a01b900460ff1661047f5760405162461bcd60e51b815260206004820152601360248201527210dbdb9d1c9858dd081b9bdd081c185d5cd959606a1b6044820152606401610427565b6000805460ff60a01b191681556040517f0e5e3b3fb504c22cf5c42fa07d521225937514c654007e1f12646f89768d6f949190a1565b6000546001600160a01b031633146104df5760405162461bcd60e51b815260040161042790610dcf565b6001600160a01b03811660009081526004602052604090205460ff166105405760405162461bcd60e51b8152602060048201526016602482015275149958da5c1a595b9d081b9bdd08185c1c1c9bdd995960521b6044820152606401610427565b6001600160a01b038116600081815260046020526040808220805460ff19169055517fe4edb2bccf9a4ae1bd922a4a26adcd27bfab39c40c0f8f56bbfc15ad5265ae2e9190a250565b6000546001600160a01b031633146105b35760405162461bcd60e51b815260040161042790610dcf565b6001600160a01b0381166106095760405162461bcd60e51b815260206004820152601960248201527f496e76616c696420726563697069656e742061646472657373000000000000006044820152606401610427565b6001600160a01b03811660009081526004602052604090205460ff16156106725760405162461bcd60e51b815260206004820152601a60248201527f526563697069656e7420616c726561647920617070726f7665640000000000006044820152606401610427565b6001600160a01b038116600081815260046020526040808220805460ff19166001179055517f09fc45c4c2993899475bf706f40bd1bffb0121f30ce25abfcb3113d11b4bb8769190a250565b6000546001600160a01b031633146106e85760405162461bcd60e51b815260040161042790610dcf565b600054600160a01b900460ff16156107425760405162461bcd60e51b815260206004820152601760248201527f436f6e747261637420616c7265616479207061757365640000000000000000006044820152606401610427565b6000805460ff60a01b1916600160a01b1781556040517fab35696f06e428ebc5ceba8cd17f8fed287baf43440206d1943af1ee53e6d2679190a1565b600054600160a01b900460ff16156107cd5760405162461bcd60e51b815260206004820152601260248201527110dbdb9d1c9858dd081a5cc81c185d5cd95960721b6044820152606401610427565b3360009081526004602052604090205460ff1661082c5760405162461bcd60e51b815260206004820152601960248201527f4e6f7420616e20617070726f76656420726563697069656e74000000000000006044820152606401610427565b6000811161087c5760405162461bcd60e51b815260206004820152601d60248201527f416d6f756e74206d7573742062652067726561746572207468616e20300000006044820152606401610427565b804710156108cc5760405162461bcd60e51b815260206004820152601d60248201527f496e73756666696369656e7420636f6e74726163742062616c616e63650000006044820152606401610427565b80600254101561091e5760405162461bcd60e51b815260206004820152601860248201527f496e73756666696369656e7420746f74616c2066756e647300000000000000006044820152606401610427565b600061092d6201518042610d94565b3360009081526006602052604090205490915081111561096757336000908152600560209081526040808320839055600690915290208190555b60015433600090815260056020526040902054610985908490610e10565b11156109ca5760405162461bcd60e51b815260206004820152601460248201527311185a5b1e481b1a5b5a5d08195e18d95959195960621b6044820152606401610427565b33600090815260056020526040812080548492906109e9908490610e10565b925050819055508160026000828254610a029190610db6565b9091555050604051339083156108fc029084906000818181858888f19350505050158015610a34573d6000803e3d6000fd5b5060025460405133917fb4195165baa26fd0604e2ead0b035d9b0ee6df0f7d4f97852c4039a98930e6b591610a7191868252602082015260400190565b60405180910390a25050565b600054600160a01b900460ff1615610acc5760405162461bcd60e51b815260206004820152601260248201527110dbdb9d1c9858dd081a5cc81c185d5cd95960721b6044820152606401610427565b60003411610b155760405162461bcd60e51b8152602060048201526016602482015275135d5cdd081cd95b990810559056081d1bc8199d5b9960521b6044820152606401610427565b3360009081526003602052604081208054349290610b34908490610e10565b925050819055503460026000828254610b4d9190610e10565b909155505033600081815260036020908152604091829020548251348152918201527fbee4fe3675934fca827426c793623996a3079255089bda3a717019ffc5db2765910160405180910390a2565b6000546001600160a01b03163314610bc65760405162461bcd60e51b815260040161042790610dcf565b600054600160a01b900460ff16610c385760405162461bcd60e51b815260206004820152603060248201527f436f6e7472616374206d7573742062652070617573656420666f7220656d657260448201526f19d95b98de481dda5d1a191c985dd85b60821b6064820152608401610427565b60006002819055805460405147926001600160a01b039092169183156108fc02918491818181858888f19350505050158015610c78573d6000803e3d6000fd5b5050565b6000546001600160a01b03163314610ca65760405162461bcd60e51b815260040161042790610dcf565b60008111610d015760405162461bcd60e51b815260206004820152602260248201527f4461696c79206c696d6974206d7573742062652067726561746572207468616e604482015261020360f41b6064820152608401610427565b60018190556040518181527f6cd8635c4285386b9de2e59a4c1eaf32ad41f28ae64c308280217d7af51464e09060200160405180910390a150565b600060208284031215610d4e57600080fd5b81356001600160a01b03811681146103f657600080fd5b600060208284031215610d7757600080fd5b5035919050565b634e487b7160e01b600052601160045260246000fd5b600082610db157634e487b7160e01b600052601260045260246000fd5b500490565b81810381811115610dc957610dc9610d7e565b92915050565b60208082526021908201527f4f6e6c79206f776e65722063616e2063616c6c20746869732066756e6374696f6040820152603760f91b606082015260800190565b80820180821115610dc957610dc9610d7e56fea2646970667358221220dee7afb9295c77f0029dc4b31b73566062ea8a9acd9a499dd158fca12517235764736f6c63430008130033",
  "linkReferences": {},
  "deployedLinkReferences": {}
}